:020000040800F2
:10000000880600208902000897020008990200086B
:100010009B0200089D0200089F02000800000000EB
:10002000000000000000000000000000A102000825
:10003000A302000800000000A5020008A7020008B3
:10004000A9020008A9020008A9020008A9020008E4
:10005000A9020008A9020008A9020008A9020008D4
:10006000A9020008A9020008A9020008A9020008C4
:10007000A9020008A9020008A9020008A9020008B4
:10008000A9020008A9020008A9020008A9020008A4
:10009000A9020008A9020008A9020008A902000894
:1000A000A9020008A9020008A9020008A902000884
:1000B000A902000881520008B1520008A9020008F4
:1000C000A9020008A9020008A9020008A902000864
:1000D000A9020008A9540008A9020008A902000802
:1000E000A9020008A9020008A9020008A902000844
:1000F000A9020008A9020008A9020008A902000834
:10010000A9020008A9020008ED520008A90200088F
:10011000A9020008A9020008A9020008A902000813
:10012000A9020008A9020008A9020008A902000803
:10013000A9020008A9020008A9020008A9020008F3
:10014000A9020008A9020008A9020008A9020008E3
:10015000A9020008A9020008A9020008A9020008D3
:10016000A9020008A9020008A9020008A9020008C3
:10017000A9020008A9020008A9020008A9020008B3
:10018000A9020008A902000800F002F800F06DF8CA
:100190000AA090E8000C82448344AAF10107DA45E2
:1001A00001D100F062F8AFF2090EBAE80F0013F0C7
:1001B000010F18BFFB1A43F0010318473C890000E8
:1001C0005C8900000A444FF0000C10F8013B13F06A
:1001D000070408BF10F8014B1D1108BF10F8015BA0
:1001E000641E05D010F8016B641E01F8016BF9D193
:1001F00013F0080F1EBF10F8014BAD1C0C1B09D1EA
:100200006D1E58BF01F801CBFAD505E014F8016B5B
:1002100001F8016B6D1EF9D59142D6D370470000ED
:100220000023002400250026103A28BF78C1FBD8FF
:10023000520728BF30C148BF0B607047642900F0E7
:10024000A380752900F0A080782900F0D980632967
:1002500000F02D82732900F03282002070471FB514
:1002600006F0EBFF1FBD10B510BD00F05BFA1146A4
:10027000FFF7F5FF05F0E8F900F079FA03B4FFF7AE
:10028000F2FF03BC05F057F90B48016841F4700117
:1002900001600A480047FEE7FEE7FEE7FEE7FEE7EB
:1002A000FEE7FEE7FEE7FEE7FEE70000044805493B
:1002B000034A054B7047000088ED00E08901000803
:1002C0008802002088060020880200207047000075
:1002D0000FB4044910B503AA029800F0F5F910BC58
:1002E0005DF814FB0400002070B5044685690068C1
:1002F000C10601D5302600E02026C00707D070BD1A
:10030000D4E9012130469047206A401C20626D1ECE
:10031000F6D570BD70B5044685690078C00707D171
:1003200070BDD4E9012120209047206A401C206242
:100330006D1EF6D570BD70B50C460546012A05D078
:100340002878800600D5EA69002302E0012305E051
:100350005B1C934202D2E05C0028F9D1A869E61840
:10036000C01AA861286A184428622846FFF7BCFF13
:1003700004E0D5E9012114F8010B9047B442F8D309
:100380002846FFF7C7FF70BD2DE9F041064600245F
:1003900010687529314616A510D0AFF300800028EB
:1003A00002DA404213A507E031688A0701D512A599
:1003B00002E0490704D511A5012401E0AFF3008054
:1003C00000210A2206F1240709E0B0FBF2FCB0FB91
:1003D000F2F302FB1C00303078541846491C002808
:1003E000F3D123462A463046BDE8F04100F0FCB880
:1003F000000000002D0000002B0000002000000085
:1004000070B504460D4621461068AFF30080218880
:10041000090502D50F4A7A4402E00E4A7A440E32A8
:10042000002104F1240305E000F00F060009965DA9
:100430005E54491C0028F7D120780023000704D51A
:10044000702D02D009B1022311322046BDE8704060
:1004500000F0CAB8F48500002DE9F05F8946044633
:100460004FF0000ADFF874B1FB44C0F820A020462A
:10047000E1688847002874D0252806D0D4E90121F6
:100480009047206A401C2062F1E700265F46204624
:10049000E16888472028054607DB312D05D2781909
:1004A00010F8200C08B10643F1E7B00701D526F09B
:1004B0000406C4F81CA00027C4F818A02A2D09D0EF
:1004C000284605F031F838B304EB8708303DC8F80A
:1004D000185019E059F8041B204604EB870291617B
:1004E000E1688847012F054618D1E069002820DA25
:1004F00026F020061DE0D8F8180000EB800005EB80
:1005000040003038C8F818002046E16888470546A2
:1005100005F00AF80028EED1012F0AD02E2D08D1BF
:100520002046E16888477F1C0546022F46F02006DA
:10053000C4DBA069002803DA404246F00106A0614E
:10054000F00701D026F010066C2D0BD0682D09D0D5
:100550004C2D39D06A2D35D0742D35D07A2D33D02D
:1005600016E038E0E1682F4620468847B842054645
:1005700009D16C2F26D04FF48060E16806432046F5
:100580008847054604E06C2F1AD04FF4807006436C
:100590000DB3A5F14100192802D8203546F40066B4
:1005A0004A462946204626604E46FFF747FE80B160
:1005B00001280BD0F61D26F0070000F1080956E7C8
:1005C0004020E4E78020D8E70020D6E706F10409C0
:1005D0004DE7284652E7206ABDE8F09FCA85000033
:1005E00070477047704770472DE9F0470D469946B0
:1005F0009246044600F124080168880604D5E069A3
:1006000021F01001216000E00120A84201DD471B1C
:1006100000E00027A1697A1902EB0900081AA0611D
:100620002078C00602D42046FFF75EFE002608E0D0
:10063000D4E901211AF806009047206A401C761C74
:1006400020624E45F4DB2078C0060AD52046FFF72D
:100650004BFE06E0D4E9012130209047206A401C7F
:100660002062381EA7F10107F4DC07E0D4E901217C
:1006700018F805009047206A401C2062281EA5F14A
:100680000105F3DC2046FFF745FE2078000602D581
:100690000220BDE8F0870120FBE710B5436913B1E4
:1006A000AFF3008001E0FFF746FE012010BD127895
:1006B00000F124010A7000224A700122EDE711685E
:1006C0004FF0FF32E9E70000074B70B50D467B4461
:1006D00000F011F80446284600F020F810B14FF061
:1006E000FF3070BD204670BD5B4F000001694A1CA1
:1006F00002610878704700B58FB0CDE90131002163
:10070000059105497944CDE9031011466846FFF784
:10071000A3FE0FB000BD0000E5FFFFFF007B00F06F
:1007200080007047754600F029F8AE46050069461E
:10073000534620F00700854618B020B5FFF7B6FDF8
:10074000BDE820404FF000064FF000074FF00008D2
:100750004FF0000B21F00701AC46ACE8C009ACE853
:10076000C009ACE8C009ACE8C0098D467047044632
:10077000AFF300802046FFF781FD0000004870477E
:10078000280200201CB53448006840F480703249CB
:10079000086031481438006840F001002E491439CF
:1007A0000860012000210B460322CDE90010202122
:1007B0002A4800F079F828482038006840F4807012
:1007C0002549203908600846006820F480700860D8
:1007D0004FF48030224908602248D0F8040340F4E6
:1007E0000000086000201F49486088600846406893
:1007F00048600846406848600846806820F002006B
:1008000088600846806820F4006088600846806838
:1008100088600846C06A20F47000C8620846C06A52
:10082000C8620846006920F4603008610846006923
:1008300040F4603008610846C06820F4E010C860E9
:100840000846C06840F4E010C8600846806840F080
:10085000010088601CBD00004438024000000240D6
:10086000042301400020014030B5CC1000F12003EA
:1008700053F824304C07E50E0F24AC40A343CD10B1
:1008800000F1200444F82530CC1000F1200353F887
:1008900024304C07E40E02FA04F42343CD1000F197
:1008A000200444F8253030BD2DE9F0470C46DDE941
:1008B0000867002100258C4600BF60E04FF001086A
:1008C00008FA01F504EA050CAC4557D1D0F80080D0
:1008D0004FEA410A4FF0030909FA0AF928EA090820
:1008E000C0F80080D0F800804FEA410902FA09F907
:1008F00048EA0908C0F80080012A01D0022A27D15D
:10090000D0F808804FEA410A4FF0030909FA0AF9C2
:1009100028EA0908C0F80880D0F808804FEA4109A1
:1009200006FA09F948EA0908C0F80880D0F80490E6
:100930004FF0010808FA01F829EA0809C0F8049004
:10094000D0F8048003FA01F948EA0908C0F80480E5
:10095000D0F80C804FEA410A4FF0030909FA0AF96E
:1009600028EA0908C0F80C80D0F80C804FEA410949
:1009700007FA09F948EA0908C0F80C80491C10294F
:100980009CD3BDE8F087000001460D48406B20F085
:100990001F000B4A50631046406B084350631046DB
:1009A000806840F08040906000BF0548006800F01B
:1009B00002000028F9D00248C06C80B270470000E5
:1009C000002001402DE9F04107460C460025002695
:1009D00008E03846FFF7D8FF0544052004F0CEFDB7
:1009E000701CC6B2A642F4DBB5FBF4F080B2BDE8E1
:1009F000F08100001CB51048006840F001000E496D
:100A000008600846006840F01000086001200021DE
:100A10000B460A46CDE900101C210848FFF744FFA9
:100A2000022000210B460A46CDE9001001210448AE
:100A3000FFF73AFF1CBD00003038024000100240B2
:100A40000000024010B5044614B10120234908708B
:100A50002248007858B32248006858B12048001F47
:100A6000006838B11E480838006818B11D48006891
:100A700001281CD10A2004F081FD002017490870CC
:100A80001748006808B9012010BD1548001F00680C
:100A900008B90220F8E712480838006808B90320AE
:100AA000F2E710480068012815D10420ECE70C4853
:100AB000006801280FD10A48001F006801280AD1E8
:100AC000074808380068012805D10648006810B9B1
:100AD0000120024908700020D6E700000E00002027
:100AE000100242420002404270B5044600261748F8
:100AF0000588408845431548808846F604018842A9
:100B000016D112488079012812D100200F4988712E
:100B10002A2048812B2088810021084604F01CF8F7
:100B200001200A4988712B2048812A20888103E00E
:100B30000021084604F010F804F020FA002602E034
:100B400003480480761CAE42FAD370BD1802002020
:100B50008000006C10B50446002C66D16C49887189
:100B6000F02008804FF4A07048800846808849F241
:100B7000413188420BD06648808846F6040188429D
:100B800005D06348808845F2103188421AD12C2064
:100B90005F4908812A2048812B2088810846808867
:100BA00046F60401884205D05948808845F2103144
:100BB000884206D14FF4A070554908804FF4F07078
:100BC0004880A1E05248808845F21051884210D1F7
:100BD0004FF430504E4908814FF4285048814FF46B
:100BE0002C5088814FF4F07008804FF44870488092
:100BF0008AE04748808841F6631188420DD12C2055
:100C0000434908812B2048812A2088814FF4F070C5
:100C100008804FF44870488076E022203C490881E3
:100C200020204881212088816EE001203849887188
:100C30004FF4A0700880F02048800846808849F270
:100C40004131884205D03248808845F210318842CF
:100C500007D12C202E4908812A2048812B20888109
:100C60003FE02B48808846F60401884207D12C20BB
:100C7000274908812B2048812A20888131E0244897
:100C8000808845F21051884210D14FF430502049ED
:100C900008814FF4285048814FF42C5088814FF43C
:100CA000487008804FF4F07048801AE01848808837
:100CB00041F6631188420DD12C20154908812A2064
:100CC00048812B2088814FF4487008804FF4F070E1
:100CD000488006E022200E490881212048812020FA
:100CE00088810B48808846F60401884205D0084870
:100CF000808845F21031884206D14FF4F0700449E3
:100D000008804FF4A0704880002003F0AFFD10BDB4
:100D10001802002070B504460D4616465B488088D0
:100D200049F24131884205D05848808845F2103157
:100D3000884214D15549488904F014F9201204F06E
:100D400005F9E0B204F002F95049888904F00AF983
:100D5000281204F0FBF8E8B204F0F8F88CE04B48F5
:100D6000808845F21051884220D14849488904F0D2
:100D7000F9F8201204F0EAF844494989491C88B27C
:100D800004F0F0F8E0B204F0E1F84049888904F09A
:100D9000E9F8281204F0DAF83C498989491C88B23C
:100DA00004F0E0F8E8B204F0D1F865E03748808854
:100DB00041F66311884228D13448807920B93348FC
:100DC0000088401E001B84B23049488904F0CAF8EC
:100DD000201204F0BBF8E0B204F0B8F8201204F0DE
:100DE000B5F8E0B204F0B2F82849888904F0BAF8FE
:100DF000281204F0ABF8E8B204F0A8F8281204F0C6
:100E0000A5F8E8B204F0A2F836E02048808846F65B
:100E1000040188421DD11D488079012804D11B4856
:100E20000088401E001B84B21849488904F09AF8D3
:100E3000201204F08BF8E0B204F088F81349888996
:100E400004F090F8281204F081F8E8B204F07EF87B
:100E500012E00E488079012804D10C480088401E19
:100E6000001B84B209494889214604F091F80749DA
:100E70008889294604F08CF80448008904490880D0
:100E80004FF0D840A0F8806070BD0000180200202C
:100E90007E00006C1CB5FE48006840F07800FC49FC
:100EA00008600846006840F002000860F848083012
:100EB000006840F00100F649083108600120022175
:100EC00000230246CDE90010C103F248FFF7ECFC15
:100ED0000120032100230222CDE900104CF23371DE
:100EE000ED48FFF7E1FC0120032100230222CDE9B8
:100EF00000104FF68071E948FFF7D6FC012003216E
:100F000000230222CDE900100103E548FFF7CCFCE5
:100F10000120032100230222CDE900100103E14852
:100F2000FFF7C2FC0C220021DB48FFF79DFC0C22DE
:100F30000121D948FFF798FC0C220421D648FFF77D
:100F400093FC0C220521D448FFF78EFC0C220821CB
:100F5000D148FFF789FC0C220921CF48FFF784FC18
:100F60000C220A21CC48FFF77FFC0C220E21CA4834
:100F7000FFF77AFC0C220F21C748FFF775FC0C2203
:100F80000721C648FFF770FC0C220821C348FFF771
:100F90006BFC0C220921C148FFF766FC0C220A21D8
:100FA000BE48FFF761FC0C220B21BC48FFF75CFC3C
:100FB0000C221146B948FFF757FC0C220D21B74807
:100FC000FFF752FC0C220E21B448FFF74DFC0C2217
:100FD0000F21B248FFF748FC0C221146B048FFF73A
:100FE00043FC0C221146AF48FFF73EFC00204FF0B7
:100FF00020418861C861AC4908604FF02040806999
:1010000040F480504FF0204188610846806940F4E8
:10101000804088610846806940F010008861084679
:10102000C069C8610846C06940F00F00C861084641
:10103000C06940F47050C8619B480068C1F81C0149
:101040000846D0F81C0140F00900C1F81C01084610
:10105000D0F81C0140F40060C1F81C01084680690A
:1010600040F001008861322004F088FA012100205C
:1010700003F08EFF322004F081FA002003F0BAFB67
:101080008A49888008468088FF280ADB08468088CD
:101090004FF6FF71884204D084488088B0F5134F22
:1010A0007ED1D32003F05EFF03F09AFB7F49888056
:1010B00003F096FB7D49888003F092FB7B49888092
:1010C000084680884FF6FF7101EA00207749888042
:1010D00003F086FB7549898808437449888008466F
:1010E000808849F2413188425AD0BF2003F03AFF4C
:1010F00003F076FB6D49888003F072FB6B498880B2
:1011000003F06EFB6949888003F06AFB67498880B9
:10111000084680884FF6FF7101EA00206349888005
:1011200003F05EFB6149898808436049888008466E
:10113000808846F6040188427AD0D42003F012FF5A
:1011400003F04EFB5949888003F04AFB57498880D9
:1011500003F046FB55498880084680884FF6FF71AA
:1011600001EA00205149888003F03AFB4F49898801
:1011700008434E4988800846808845F210318842ED
:1011800056D04FF45A4003F0EDFE03F029FB4749D7
:1011900088804FF45B4003F0E5FE03F021FB00E0A4
:1011A00046E042498880084680884FF6FF7101EA90
:1011B00000203E4988804FF45C4003F0D3FE03F0EA
:1011C0000FFB3A4989880843384988800846808857
:1011D000B0F5004F02D145F2105088803348808826
:1011E00045F21051884223D0A12003F0BBFE03F04A
:1011F000F7FA2E49888003F0F3FA2C4988800846D4
:1012000080884FF6FF7101EA00202849888003F0AA
:10121000E7FA264989880843244988800846808857
:1012200045F26171884203D141F663101F498880FD
:101230001E48808849F24131884211D01B4880887D
:1012400045F2103188420BD01848808845F2105181
:10125000884205D01548808841F6631188422ED116
:101260001148006820F00F004FF02041C1F81C0128
:101270000846D0F81C0120F47060C1F81C01084633
:10128000D0F81C0140F00300C1F81C0108460FE033
:101290003038024000040240000C024000100240BE
:1012A00000140240001802401C0100A01802002097
:1012B000D0F81C0140F40070C1F81C0128E0FE4881
:1012C000808846F60401884205D0FB4880884CF2AD
:1012D000055188421CD1F948006820F00F004FF0FA
:1012E0002041C1F81C010846D0F81C0120F47060B0
:1012F000C1F81C010846D0F81C0140F00A00C1F8F2
:101300001C010846D0F81C0140F44060C1F81C01E3
:10131000E9488188EAA0FEF7DBFFE748808849F2C8
:10132000413188427ED1CF2003F01CFE002003F023
:101330000DFEC12003F00AFE302003F007FEED2071
:1013400003F010FE642003F001FE032003F0FEFD15
:10135000122003F0FBFD812003F0F8FDE82003F0EC
:1013600001FE852003F0F2FD102003F0EFFD7A204E
:1013700003F0ECFDCB2003F0F5FD392003F0E6FD92
:101380002C2003F0E3FD002003F0E0FD342003F007
:10139000DDFD022003F0DAFDF72003F0E3FD20205D
:1013A00003F0D4FDEA2003F0DDFD002003F0CEFDC4
:1013B000002003F0CBFDC02003F0D4FD1B2003F080
:1013C000C5FDC12003F0CEFD012003F0BFFDC52007
:1013D00003F0C8FD302003F0B9FD302003F0B6FD66
:1013E000C72003F0BFFDB72003F0B0FD362003F0A7
:1013F000B9FD482003F0AAFD3A2003F0B3FD5520C3
:1014000003F0A4FDB12003F0ADFD002003F09EFD2C
:101410001A2003F09BFDB62003F0A4FD0A2003F080
:1014200095FD00E097E0A22003F090FDF22003F08C
:1014300099FD002003F08AFD262003F093FD012092
:1014400003F084FDE02003F08DFD0F2003F07EFD0E
:101450002A2003F07BFD282003F078FD082003F00C
:1014600075FD0E2003F072FD082003F06FFD54207F
:1014700003F06CFDA92003F069FD432003F066FD35
:101480000A2003F063FD0F2003F060FD002003F04D
:101490005DFD002003F05AFD002003F057FD002001
:1014A00003F054FDE12003F05DFD002003F04EFD4C
:1014B000152003F04BFD172003F048FD072003F033
:1014C00045FD112003F042FD062003F03FFD2B20D7
:1014D00003F03CFD562003F039FD3C2003F036FDBF
:1014E000052003F033FD102003F030FD0F2003F042
:1014F0002DFD3F2003F02AFD3F2003F027FD0F20A4
:1015000003F024FD2B2003F02DFD002003F01EFD31
:10151000002003F01BFD012003F018FD3F2003F025
:1015200015FD2A2003F01EFD002003F00FFD002012
:1015300003F00CFD002003F009FDEF2003F006FD91
:10154000112003F00FFD782004F018F8292003F093
:1015500009FD03F029B95848808846F604018842FD
:101560007ED1112003F0FEFC142004F007F8D020F7
:1015700003F0F8FC072003F0E9FC422003F0E6FC4E
:101580001D2003F0E3FCD12003F0ECFC002003F06D
:10159000DDFC1A2003F0DAFC092003F0D7FCD2208E
:1015A00003F0E0FC012003F0D1FC222003F0CEFC8C
:1015B000C02003F0D7FC102003F0C8FC3B2003F050
:1015C000C5FC002003F0C2FC022003F0BFFC112088
:1015D00003F0BCFCC52003F0C5FC032003F0B6FCFF
:1015E000C82003F0BFFC002003F0B0FC252003F06E
:1015F000ADFC212003F0AAFC052003F0A7FC00208D
:1016000003F0A4FC0A2003F0A1FC652003F09EFC7B
:10161000252003F09BFC772003F098FC502003F07A
:1016200095FC0F2003F092FC002003F08FFCF820C3
:1016300003F098FC012003F089FCFE2003F092FCEB
:10164000002003F083FC022003F080FC202003F044
:1016500089FC362003F086FC082003F077FC00E0CC
:1016600036E03A2003F07EFC552003F06FFC2B207F
:1016700003F078FC002003F069FC002003F066FC16
:10168000012003F063FC3F2003F060FC2A2003F0FC
:1016900069FC002003F05AFC002003F057FC0120F5
:1016A00003F054FCDF2003F051FC782003F066FFC8
:1016B000292003F057FC4CE7180200201C0100A071
:1016C000204C43442049443A25780D0A000000008C
:1016D000FE48808845F21031884240F07C87ED203A
:1016E00003F040FC012003F031FCFE2003F02EFC4F
:1016F000EE2003F037FCDE2003F028FC212003F06D
:1017000025FCF12003F02EFC012003F01FFCDF205C
:1017100003F028FC102003F019FCC42003F022FC85
:101720008F2003F013FCC62003F01CFC002003F004
:101730000DFCE22003F00AFCE22003F007FCE220AB
:1017400003F004FCBF2003F00DFCAA2003F0FEFB15
:10175000B02003F007FC0D2003F0F8FB002003F09D
:10176000F5FB0D2003F0F2FB002003F0EFFB11204E
:1017700003F0ECFB002003F0E9FB192003F0E6FB8B
:10178000002003F0E3FB212003F0E0FB002003F046
:10179000DDFB2D2003F0DAFB002003F0D7FB3D201A
:1017A00003F0D4FB002003F0D1FB5D2003F0CEFB5F
:1017B000002003F0CBFB5D2003F0C8FB002003F00A
:1017C000C5FBB12003F0CEFB802003F0BFFB00205F
:1017D00003F0BCFB8B2003F0B9FB002003F0B6FB49
:1017E000962003F0B3FB002003F0B0FBB22003F01F
:1017F000B9FB002003F0AAFB002003F0A7FB0220A6
:1018000003F0A4FB002003F0A1FB032003F09EFBE8
:10181000002003F09BFBB32003F0A4FB002003F0A7
:1018200095FB002003F092FB002003F08FFB0020CB
:1018300003F08CFB002003F089FB002003F086FB03
:10184000002003F083FB002003F080FB002003F066
:101850007DFB002003F07AFB002003F077FB0020E3
:1018600003F074FB002003F071FB002003F06EFB1B
:10187000002003F06BFB002003F068FB002003F066
:1018800065FB002003F062FB002003F05FFB0020FB
:1018900003F05CFB002003F059FB002003F056FB33
:1018A000002003F053FB002003F050FBB42003F0B2
:1018B00059FB8B2003F04AFB002003F047FB9620E6
:1018C00003F044FB002003F041FBA12003F03EFBAA
:1018D000002003F03BFBB52003F044FB022003F0A3
:1018E00035FB002003F032FB032003F02FFB002028
:1018F00003F02CFB042003F029FB002003F026FB5F
:10190000B62003F02FFB002003F020FB002003F0A3
:101910001DFBB72003F026FB002003F017FB00207F
:1019200003F014FB3F2003F011FB002003F00EFB3B
:101930005E2003F00BFB002003F008FB642003F0A3
:1019400005FB002003F002FB8C2003F0FFFA0020CF
:1019500003F0FCFAAC2003F0F9FA002003F0F6FAE9
:10196000DC2003F0F3FA002003F0F0FA702003F01B
:10197000EDFA002003F0EAFA902003F0E7FA0020E5
:1019800003F0E4FAEB2003F0E1FA002003F0DEFAC2
:10199000DC2003F0DBFA002003F0D8FAB82003F0D3
:1019A000E1FA002003F0D2FA002003F0CFFA002081
:1019B00003F0CCFA002003F0C9FA002003F0C6FAC5
:1019C000002003F0C3FA002003F0C0FA002003F067
:1019D000BDFABA2003F0C6FA242003F0B7FA0020BB
:1019E00003F0B4FA002003F0B1FA002003F0AEFADD
:1019F000C12003F0B7FA202003F0A8FA002003F07A
:101A0000A5FA542003F0A2FA002003F09FFAFF2069
:101A100003F09CFA002003F099FAC22003F0A2FA26
:101A20000A2003F093FA002003F090FA042003F058
:101A30008DFA002003F08AFAC32003F093FA3C20C9
:101A400003F084FA002003F081FA3A2003F07EFAD2
:101A5000002003F07BFA392003F078FA002003F02D
:101A600075FA372003F072FA002003F06FFA3C2079
:101A700003F06CFA002003F069FA362003F066FAEE
:101A8000002003F063FA322003F060FA002003F034
:101A90005DFA2F2003F05AFA002003F057FA2C20A9
:101AA00003F054FA002003F051FA292003F04EFA13
:101AB000002003F04BFA262003F048FA002003F040
:101AC00045FA242003F042FA002001E01802002029
:101AD00003F03CFA242003F039FA002003F036FA30
:101AE000232003F033FA002003F030FA3C2003F007
:101AF0002DFA002003F02AFA362003F027FA0020FE
:101B000003F024FA322003F021FA002003F01EFA39
:101B10002F2003F01BFA002003F018FA2C2003F00A
:101B200015FA002003F012FA292003F00FFA002022
:101B300003F00CFA262003F009FA002003F006FA5D
:101B4000242003F003FA002003F000FA242003F01D
:101B5000FDF9002003F0FAF9232003F0F7F9002043
:101B600003F0F4F9C42003F0FDF9622003F0EEF96C
:101B7000002003F0EBF9052003F0E8F9002003F062
:101B8000E5F9842003F0E2F9002003F0DFF9F0200A
:101B900003F0DCF9002003F0D9F9182003F0D6F99E
:101BA000002003F0D3F9A42003F0D0F9002003F0C3
:101BB000CDF9182003F0CAF9002003F0C7F950202E
:101BC00003F0C4F9002003F0C1F90C2003F0BEF9C2
:101BD000002003F0BBF9172003F0B8F9002003F050
:101BE000B5F9952003F0B2F9002003F0AFF9F32026
:101BF00003F0ACF9002003F0A9F9E62003F0A6F900
:101C0000002003F0A3F9C52003F0ACF9322003F063
:101C10009DF9002003F09AF9442003F097F9002081
:101C200003F094F9652003F091F9002003F08EF998
:101C3000762003F08BF9002003F088F9882003F068
:101C400085F9002003F082F9C62003F08BF92020EB
:101C500003F07CF9002003F079F9172003F076F9FE
:101C6000002003F073F9012003F070F9002003F065
:101C70006DF9C72003F076F9002003F067F9002022
:101C800003F064F9002003F061F9002003F05EF92D
:101C9000C82003F067F9002003F058F9002003F092
:101CA00055F9002003F052F9002003F04FF9C92044
:101CB00003F058F9002003F049F9002003F046F939
:101CC000002003F043F9002003F040F9002003F066
:101CD0003DF9002003F03AF9002003F037F9002025
:101CE00003F034F9002003F031F9002003F02EF95D
:101CF000002003F02BF9002003F028F9002003F066
:101D000025F9002003F022F9002003F01FF900203C
:101D100003F01CF9E02003F025F9162003F016F972
:101D2000002003F013F91C2003F010F9002003F049
:101D30000DF9212003F00AF9002003F007F93620FD
:101D400003F004F9002003F001F9462003F0FEF847
:101D5000002003F0FBF8522003F0F8F8002003F015
:101D6000F5F8642003F0F2F8002003F0EFF87A2091
:101D700003F0ECF8002003F0E9F88B2003F0E6F81C
:101D8000002003F0E3F8992003F0E0F8002003F0CE
:101D9000DDF8A82003F0DAF8002003F0D7F8B92026
:101DA00003F0D4F8002003F0D1F8C42003F0CEF8FB
:101DB000002003F0CBF8CA2003F0C8F8002003F09D
:101DC000C5F8D22003F0C2F8002003F0BFF8D920F4
:101DD00003F0BCF8002003F0B9F8E02003F0B6F8F7
:101DE000002003F0B3F8F32003F0B0F8002003F074
:101DF000ADF8E12003F0B6F8162003F0A7F80020B4
:101E000003F0A4F81C2003F0A1F8002003F09EF8D2
:101E1000222003F09BF8002003F098F8362003F00E
:101E200095F8002003F092F8452003F08FF8002089
:101E300003F08CF8522003F089F8002003F086F8B4
:101E4000642003F083F8002003F080F87A2003F088
:101E50007DF8002003F07AF88B2003F077F800205B
:101E600003F074F8992003F071F8002003F06EF885
:101E7000A82003F06BF8002003F068F8B92003F005
:101E800065F8002003F062F8C42003F05FF800203A
:101E900003F05CF8CA2003F059F8002003F056F86C
:101EA000D22003F053F8002003F050F8D82003F0BC
:101EB0004DF8002003F04AF8E02003F047F8002036
:101EC00003F044F8F32003F041F8002003F03EF85B
:101ED000E22003F047F8052003F038F8002003F073
:101EE00035F80B2003F032F8002003F02FF81B2008
:101EF00003F02CF8002003F029F8342003F026F832
:101F0000002003F023F8442003F020F8002003F021
:101F10001DF84F2003F01AF8002003F017F8612095
:101F200003F014F8002003F011F8792003F00EF804
:101F3000002003F00BF8882003F008F8002003F0DD
:101F400005F8972003F002F8002002F0FFFFA6201A
:101F500002F0FCFF002002F0F9FFB72002F0F6FFCC
:101F6000002002F0F3FFC22002F0F0FF002002F098
:101F7000EDFFC72002F0EAFF002002F0E7FFD120CA
:101F800002F0E4FF002002F0E1FFD62002F0DEFFC5
:101F9000002002F0DBFFDD2002F0D8FF002002F07D
:101FA000D5FFF32002F0D2FF002002F0CFFFE320A4
:101FB00002F0D8FF052002F0C9FF002002F0C6FFA2
:101FC0000A2002F0C3FF002002F0C0FF1C2002F034
:101FD000BDFF002002F0BAFF332002F0B7FF00205F
:101FE00002F0B4FF442002F0B1FF002002F0AEFF87
:101FF000502002F0ABFF002002F0A8FF622002F0A8
:10200000A5FF002002F0A2FF782002F09FFF002031
:1020100002F09CFF882002F099FF002002F096FF5A
:10202000972002F093FF002002F090FFA62002F01C
:102030008DFF002002F08AFFB72002F087FF00200A
:1020400002F084FFC22002F081FF002002F07EFF38
:10205000C72002F07BFF002002F078FFD12002F0C1
:1020600075FF002002F072FFD52002F06FFF002004
:1020700002F06CFFDD2002F069FF002002F066FF35
:10208000F32002F063FF002002F060FFE42002F082
:1020900069FF012002F05AFF002002F057FF0120E3
:1020A00002F054FF002002F051FF022002F04EFF28
:1020B000002002F04BFF2A2002F048FF002002F02F
:1020C00045FF3C2002F042FF002002F03FFF4B2082
:1020D00002F03CFF002002F039FF5D2002F036FFE5
:1020E000002002F033FF742002F030FF002002F0E5
:1020F0002DFF842002F02AFF002002F027FF93200A
:1021000002F024FF002002F021FFA22002F01EFFB7
:10211000002002F01BFFB32002F018FF002002F0A5
:1021200015FFBE2002F012FF002002F00FFFC420B6
:1021300002F00CFF002002F009FFCD2002F006FFA4
:10214000002002F003FFD32002F000FF002002F085
:10215000FDFEDD2002F0FAFE002002F0F7FEF32083
:1021600002F0F4FE002002F0F1FEE52002F0FAFE9B
:10217000002002F0EBFE002002F0E8FE002002F05A
:10218000E5FE002002F0E2FE022002F0DFFE002069
:1021900002F0DCFE292002F0D9FE002002F0D6FE7B
:1021A0003C2002F0D3FE002002F0D0FE4B2002F0D3
:1021B000CDFE002002F0CAFE5D2002F0C7FE002026
:1021C00002F0C4FE742002F0C1FE002002F0BEFE48
:1021D000842002F0BBFE002002F0B8FE932002F043
:1021E000B5FE002002F0B2FEA22002F0AFFE0020F9
:1021F00002F0ACFEB32002F0A9FE002002F0A6FE21
:10220000BE2002F0A3FE002002F0A0FEC42002F0D7
:102210009DFE002002F09AFECD2002F097FE0020E5
:1022200002F094FED32002F091FE002002F08EFE18
:10223000DC2002F08BFE002002F088FEF32002F08A
:1022400085FE002002F082FEE62002F08BFE1120C7
:1022500002F07CFE002002F079FE342002F076FECF
:10226000002002F073FE562002F070FE002002F003
:102270006DFE762002F06AFE002002F067FE7720F5
:1022800002F064FE002002F061FE662002F05EFEB5
:10229000002002F05BFE882002F058FE002002F0D1
:1022A00055FE992002F052FE002002F04FFEBB20A6
:1022B00002F04CFE002002F049FE992002F046FE9A
:1022C000002002F043FE662002F040FE002002F0F3
:1022D0003DFE552002F03AFE002002F037FE552068
:1022E00002F034FE002002F031FE452002F02EFE06
:1022F000002002F02BFE432002F028FE002002F016
:1023000025FE442002F022FE002002F01FFEE720FE
:1023100002F028FE322002F019FE002002F016FE24
:10232000552002F013FE002002F010FE762002F08D
:102330000DFE002002F00AFE662002F007FE0020DB
:1023400002F004FE672002F001FE002002F0FEFD14
:10235000672002F0FBFD002002F0F8FD872002F06C
:10236000F5FD002002F0F2FD992002F0EFFD0020C3
:1023700002F0ECFDBB2002F0E9FD002002F0E6FDDA
:10238000992002F0E3FD002002F0E0FD772002F04A
:10239000DDFD002002F0DAFD442002F0D7FD002030
:1023A00002F0D4FD562002F0D1FD002002F0CEFD57
:1023B000232002F0CBFD002002F0C8FD332002F004
:1023C000C5FD002002F0C2FD452002F0BFFD002047
:1023D00002F0BCFDE82002F0C5FD002002F0B6FDD1
:1023E000002002F0B3FD992002F0B0FD002002F0C1
:1023F000ADFD872002F0AAFD002002F0A7FD882095
:1024000002F0A4FD002002F0A1FD772002F09EFD65
:10241000002002F09BFD662002F098FD002002F0F3
:1024200095FD882002F092FD002002F08FFDAA2089
:1024300002F08CFD002002F089FDBB2002F086FD39
:10244000002002F083FD992002F080FD002002F0C0
:102450007DFD662002F07AFD002002F077FD552018
:1024600002F074FD002002F071FD552002F06EFDB7
:10247000002002F06BFD442002F068FD002002F015
:1024800065FD442002F062FD002002F05FFD552052
:1024900002F05CFD002002F059FDE92002F062FD2F
:1024A000AA2002F053FD002002F050FD002002F0AF
:1024B0004DFD002002F04AFD002002F053FDAA204D
:1024C00002F044FDCF2002F04DFD002002F03EFD61
:1024D000002002F03BFD002002F038FD002002F059
:1024E00035FD002002F032FD002002F02FFD00201B
:1024F00002F02CFD002002F029FD002002F026FD54
:10250000002002F023FD002002F020FD002002F058
:102510001DFD002002F01AFD002002F017FD002032
:1025200002F014FD002002F011FD002002F00EFD6B
:10253000F02002F017FD002002F008FD502002F00C
:1025400005FD002002F002FD002002F0FFFC00204B
:1025500002F0FCFCF32002F005FD002002F0F6FC86
:10256000F92002F0FFFC062002F0F0FC102002F03F
:10257000EDFC292002F0EAFC002002F0E7FC3A2002
:1025800002F0F0FC552002F0E1FC112002F0EAFC20
:10259000642002F0F3FF292002F0E4FC352002F071
:1025A000E1FC002002F0D2FC512002F0DBFCFF2015
:1025B00002F0CCFC532002F0D5FC2C2002F0C6FC2B
:1025C000552002F0CFFC822002F0C0FC2C2002F04B
:1025D000C9FC02F0E9B8FE48808845F210518842F3
:1025E0007ED155214FF4704002F0D2FCAA214FF267
:1025F000010002F0CDFC52214FF2020002F0C8FCB3
:1026000008214FF2030002F0C3FC01214FF2040045
:1026100002F0BEFC0D214FF4304002F0B9FC0D2158
:102620004BF2010002F0B4FC0D214BF2020002F06B
:10263000AFFC34214FF4364002F0AAFC34214BF2B7
:10264000016002F0A5FC34214BF2026002F0A0FC14
:102650000D214FF4314002F09BFC0D214BF2011093
:1026600002F096FC0D214BF2021002F091FC342195
:102670004FF4374002F08CFC34214BF2017002F031
:1026800087FC34214BF2027002F082FC00214FF4EF
:10269000324002F07DFC00214BF2012002F078FC78
:1026A00000214BF2022002F073FC24214FF4384049
:1026B00002F06EFC24214BF6010002F069FC24219B
:1026C0004BF6020002F064FC01214FF43F4002F09F
:1026D0005FFC0F214FF4334002F05AFC0F2100E061
:1026E000FEE34BF2013002F053FC0F214BF20230BB
:1026F00002F04EFC34214FF4394002F049FC342101
:102700004BF6011002F044FC34214BF6021002F0AB
:102710003FFC08214FF4354002F03AFC08214BF20F
:10272000015002F035FC08214BF2025002F030FC5F
:1027300003214FF4424002F02BFC24214FF43A4095
:1027400002F026FC24214BF6012002F021FC24217A
:102750004BF6022002F01CFC00214FF43C4002F03A
:1027600017FC78214BF6014002F012FC00214BF6D9
:10277000024002F00DFC00214FF43D4002F008FC45
:1027800078214BF6015002F003FC00214BF6025079
:1027900002F0FEFB00214FF43E4002F0F9FB642101
:1027A0004BF6016002F0F4FB00214FF4514002F0BF
:1027B000EFFB33214DF2011002F0EAFB00214DF254
:1027C000021002F0E5FB34214DF2031002F0E0FBB1
:1027D00000214DF2041002F0DBFB3A214DF205100E
:1027E00002F0D6FB00214DF2061002F0D1FB4A2187
:1027F0004DF2071002F0CCFB00214DF2081002F060
:10280000C7FB5C214DF2091002F0C2FB00214DF222
:102810000A1002F0BDFB81214DF20B1002F0B8FB53
:1028200000214DF20C1002F0B3FBA6214DF20D1069
:1028300002F0AEFB00214DF20E1002F0A9FBE521E3
:102840004DF20F1002F0A4FB01214DF2101002F026
:102850009FFB13214DF2111002F09AFB01214DF262
:10286000121002F095FB54214DF2131002F090FB70
:1028700001214DF2141002F08BFB82214DF2151054
:1028800002F086FB01214DF2161002F081FBCA21F5
:102890004DF2171002F07CFB02214DF2181002F0ED
:1028A00077FB00214DF2191002F072FB02214DF26C
:1028B0001A1002F06DFB01214DF21B1002F068FBB3
:1028C00002214DF21C1002F063FB34214DF21D1069
:1028D00002F05EFB02214DF21E1002F059FB67214F
:1028E0004DF21F1002F054FB02214DF2201002F0B5
:1028F0004FFB84214DF2211002F04AFB02214DF2E0
:10290000221002F045FBA4214DF2231002F040FBFF
:1029100002214DF2241002F03BFBB7214DF22510AD
:1029200002F036FB02214DF2261002F031FBCF21DE
:102930004DF2271002F02CFB02214DF2281002F07C
:1029400027FBDE214DF2291002F022FB02214DF27D
:102950002A1002F01DFBF2214DF22B1002F018FBA1
:1029600002214DF22C1002F013FBFE214DF22D102E
:1029700002F00EFB03214DF22E1002F009FB102194
:102980004DF22F1002F004FB03214DF2301002F043
:10299000FFFA33214DF2311002F0FAFA03214DF221
:1029A000321002F0F5FA6D214DF2331002F0F0FA18
:1029B00000214FF4524002F0EBFA33214DF2012096
:1029C00002F0E6FA00214DF2022002F0E1FA01E005
:1029D0001802002034214DF2032002F0D9FA002120
:1029E0004DF2042002F0D4FA3A214DF2052002F013
:1029F000CFFA00214DF2062002F0CAFA4A214DF228
:102A0000072002F0C5FA00214DF2082002F0C0FABA
:102A10005C214DF2092002F0BBFA00214DF20A20A0
:102A200002F0B6FA81214DF20B2002F0B1FA00213A
:102A30004DF20C2002F0ACFAA6214DF20D2002F06E
:102A4000A7FA00214DF20E2002F0A2FAE5214DF284
:102A50000F2002F09DFA01214DF2102002F098FAA9
:102A600013214DF2112002F093FA01214DF21220B0
:102A700002F08EFA54214DF2132002F089FA01215E
:102A80004DF2142002F084FA82214DF2152002F05A
:102A90007FFA01214DF2162002F07AFACA214DF296
:102AA000172002F075FA02214DF2182002F070FA98
:102AB00000214DF2192002F06BFA02214DF21A208A
:102AC00002F066FA01214DF21B2002F061FA0221A8
:102AD0004DF21C2002F05CFA34214DF21D2002F070
:102AE00057FA02214DF21E2002F052FA67214DF2F0
:102AF0001F2002F04DFA02214DF2202002F048FA88
:102B000084214DF2212002F043FA02214DF22220CD
:102B100002F03EFAA4214DF2232002F039FA0221FC
:102B20004DF2242002F034FAB7214DF2252002F0B4
:102B30002FFA02214DF2262002F02AFACF214DF27F
:102B4000272002F025FA02214DF2282002F020FA77
:102B5000DE214DF2292002F01BFA02214DF22A203B
:102B600002F016FAF2214DF22B2002F011FA0221A6
:102B70004DF22C2002F00CFAFE214DF22D2002F035
:102B800007FA03214DF22E2002F002FA10214DF235
:102B90002F2002F0FDF903214DF2302002F0F8F968
:102BA00033214DF2312002F0F3F903214DF23220AE
:102BB00002F0EEF96D214DF2332002F0E9F9002127
:102BC0004FF4534002F0E4F933214DF2013002F0AA
:102BD000DFF900214DF2023002F0DAF934214DF232
:102BE000033002F0D5F900214DF2043002F0D0F9A3
:102BF0003A214DF2053002F0CBF900214DF20630BA
:102C000002F0C6F94A214DF2073002F0C1F9002165
:102C10004DF2083002F0BCF95C214DF2093002F0AF
:102C2000B7F900214DF20A3002F0B2F981214DF2DC
:102C30000B3002F0ADF900214DF20C3002F0A8F992
:102C4000A6214DF20D3002F0A3F900214DF20E3015
:102C500002F09EF9E5214DF20F3002F099F90121C1
:102C60004DF2103002F094F913214DF2113002F0C0
:102C70008FF901214DF2123002F08AF954214DF200
:102C8000133002F085F901214DF2143002F080F981
:102C900082214DF2153002F07BF901214DF2163000
:102CA00002F076F9CA214DF2173002F071F90221D3
:102CB0004DF2183002F06CF900214DF2193002F09B
:102CC00067F902214DF21A3002F062F901214DF24A
:102CD0001B3002F05DF902214DF21C3002F058F970
:102CE00034214DF21D3002F053F902214DF21E3015
:102CF00002F04EF967214DF21F3002F049F902212E
:102D00004DF2203002F044F984214DF2213002F0DE
:102D10003FF902214DF2223002F03AF9A4214DF29E
:102D2000233002F035F902214DF2243002F030F95F
:102D3000B7214DF2253002F02BF902214DF2263059
:102D400002F026F9CF214DF2273002F021F90221BD
:102D50004DF2283002F01CF9DE214DF2293002F04C
:102D600017F902214DF22A3002F012F9F2214DF248
:102D70002B3002F00DF902214DF22C3002F008F94F
:102D8000FE214DF22D3002F003F903214DF22E30D9
:102D900002F0FEF810214DF22F3002F0F9F8032175
:102DA0004DF2303002F0F4F833214DF2313002F0C0
:102DB000EFF803214DF2323002F0EAF86D214DF2C6
:102DC000333002F0E5F800214FF4544002F0E0F80F
:102DD00033214DF2014002F0DBF800214DF20240B8
:102DE00002F0D6F834214DF2034002F0D1F8002170
:102DF0004DF2044002F0CCF83A214DF2054002F0C9
:102E0000C7F800214DF2064002F0C2F84A214DF207
:102E1000074002F0BDF800214DF2084002F0B8F87A
:102E20005C214DF2094002F0B3F800214DF20A4056
:102E300002F0AEF881214DF20B4002F0A9F800211A
:102E40004DF20C4002F0A4F8A6214DF20D4002F024
:102E50009FF800214DF20E4002F09AF8E5214DF264
:102E60000F4002F095F801214DF2104002F090F869
:102E700013214DF2114002F08BF801214DF2124066
:102E800002F086F854214DF2134002F081F801213E
:102E90004DF2144002F07CF882214DF2154002F010
:102EA00077F801214DF2164002F072F8CA214DF276
:102EB000174002F06DF802214DF2184002F068F858
:102EC00000214DF2194002F063F802214DF21A4040
:102ED00002F05EF801214DF21B4002F059F800E0CB
:102EE00004E302214DF21C4002F052F834214DF26D
:102EF0001D4002F04DF802214DF21E4002F048F84C
:102F000067214DF21F4002F043F802214DF22040AC
:102F100002F03EF884214DF2214002F039F80221FE
:102F20004DF2224002F034F8A4214DF2234002F089
:102F30002FF802214DF2244002F02AF8B7214DF279
:102F4000254002F025F802214DF2264002F020F83B
:102F5000CF214DF2274002F01BF802214DF228400C
:102F600002F016F8DE214DF2294002F011F802219C
:102F70004DF22A4002F00CF8F2214DF22B4002F003
:102F800007F802214DF22C4002F002F8FE214DF22A
:102F90002D4001F0FDFF03214DF22E4001F0F8FF1E
:102FA00010214DF22F4001F0F3FF03214DF230408C
:102FB00001F0EEFF33214DF2314001F0E9FF032132
:102FC0004DF2324001F0E4FF6D214DF2334001F04B
:102FD000DFFF00214FF4554001F0DAFF33214DF2BD
:102FE000015001F0D5FF00214DF2025001F0D0FF59
:102FF00034214DF2035001F0CBFF00214DF204507B
:1030000001F0C6FF3A214DF2055001F0C1FF002149
:103010004DF2065001F0BCFF4A214DF2075001F07D
:10302000B7FF00214DF2085001F0B2FF5C214DF2D4
:10303000095001F0ADFF00214DF20A5001F0A8FF48
:1030400081214DF20B5001F0A3FF00214DF20C50F5
:1030500001F09EFFA6214DF20D5001F099FF0021D5
:103060004DF20E5001F094FFE5214DF20F5001F0AA
:103070008FFF01214DF2105001F08AFF13214DF214
:10308000115001F085FF01214DF2125001F080FF37
:1030900054214DF2135001F07BFF01214DF21450E9
:1030A00001F076FF82214DF2155001F071FF0121F0
:1030B0004DF2165001F06CFFCA214DF2175001F08D
:1030C00067FF02214DF2185001F062FF00214DF21E
:1030D000195001F05DFF02214DF21A5001F058FF26
:1030E00001214DF21B5001F053FF02214DF21C5003
:1030F00001F04EFF34214DF21D5001F049FF022135
:103100004DF21E5001F044FF67214DF21F5001F0B7
:103110003FFF02214DF2205001F03AFF84214DF291
:10312000215001F035FF02214DF2225001F030FF15
:10313000A4214DF2235001F02BFF02214DF2245027
:1031400001F026FFB7214DF2255001F021FF0221A9
:103150004DF2265001F01CFFCF214DF2275001F017
:1031600017FF02214DF2285001F012FFDE214DF22F
:10317000295001F00DFF02214DF22A5001F008FF05
:10318000F2214DF22B5001F003FF02214DF22C50A1
:1031900001F0FEFEFE214DF22D5001F0F9FE03215B
:1031A0004DF22E5001F0F4FE10214DF22F5001F09F
:1031B000EFFE03214DF2305001F0EAFE33214DF2D3
:1031C000315001F0E5FE03214DF2325001F0E0FEF6
:1031D0006D214DF2335001F0DBFE00214FF45640DB
:1031E00001F0D6FE33214DF2016001F0D1FE002145
:1031F0004DF2026001F0CCFE34214DF2036001F08B
:10320000C7FE00214DF2046001F0C2FE3A214DF2EA
:10321000056001F0BDFE00214DF2066001F0B8FE30
:103220004A214DF2076001F0B3FE00214DF2086023
:1032300001F0AEFE5C214DF2096001F0A9FE002113
:103240004DF20A6001F0A4FE81214DF20B6001F005
:103250009FFE00214DF20C6001F09AFEA6214DF276
:103260000D6001F095FE00214DF20E6001F090FE20
:10327000E5214DF20F6001F08BFE01214DF210604F
:1032800001F086FE13214DF2116001F081FE012153
:103290004DF2126001F07CFE54214DF2136001F0FA
:1032A00077FE01214DF2146001F072FE82214DF291
:1032B000156001F06DFE01214DF2166001F068FE0F
:1032C000CA214DF2176001F063FE02214DF2186031
:1032D00001F05EFE00214DF2196001F059FE02215D
:1032E0004DF21A6001F054FE01214DF21B6001F015
:1032F0004FFE02214DF21C6001F04AFE34214DF2D6
:103300001D6001F045FE02214DF21E6001F040FEFD
:1033100067214DF21F6001F03BFE02214DF220605B
:1033200001F036FE84214DF2216001F031FE0221D0
:103330004DF2226001F02CFEA4214DF2236001F039
:1033400027FE02214DF2246001F022FEB7214DF24A
:10335000256001F01DFE02214DF2266001F018FEED
:10336000CF214DF2276001F013FE02214DF22860BB
:1033700001F00EFEDE214DF2296001F009FE02216E
:103380004DF22A6001F004FEF2214DF22B6001F0B3
:10339000FFFD02214DF22C6001F0FAFDFE214DF2FD
:1033A0002D6001F0F5FD03214DF22E6001F0F0FDDE
:1033B00010214DF22F6001F0EBFD03214DF2306042
:1033C00001F0E6FD33214DF2316001F0E1FD032112
:1033D0004DF2326001F0DCFD6D214DF2336001F001
:1033E000D7FD55214FF4704001F0D2FDAA214FF2D4
:1033F000010001F0CDFD52214FF2020001F0C8FDA5
:1034000008214FF2030001F0C3FD00214FF2040038
:1034100001F0BEFDCC214FF4314001F0B9FD002197
:103420004BF2011001F0B4FD05214FF4364001F0DC
:10343000AFFD70214FF4374001F0AAFD70214BF22F
:10344000017001F0A5FD01214FF4384001F0A0FD0D
:1034500003214BF6010001F09BFD03214BF6020016
:1034600001F096FD03214BF6030001F091FD0221CE
:103470004FF43C4001F08CFD00214BF6014001F07F
:1034800087FD00214BF6024001F082FDD0214FF470
:10349000494001F07DFD02214CF6011001F078FD5C
:1034A00050214CF6021001F073FD50214CF6031030
:1034B00001F06EFD50214CF6041001F069FD002171
:1034C0004FF4545001F064FD55214FF4685001F061
:1034D0005FFD4FF4885001F045FD782002F06AF856
:1034E0004FF4245001F03EFD01F05EB9FE488088A3
:1034F00049F2253188427DD147F6F001E52001F0FF
:1035000047FD4FF48071012001F042FD4FF4E0616E
:10351000022001F03DFD41F23001032001F038FDB1
:103520000021042001F034FD40F20221082001F0C6
:103530002FFD0021092001F02BFD00210A2001F0C0
:1035400027FD00210C2001F023FD00210D2001F0BA
:103550001FFD00210F2001F01BFD0021102001F0B4
:1035600017FD0721112001F013FD0021122001F0A9
:103570000FFD0021132001F00BFD0021072001F0B9
:1035800007FD41F29061102001F002FD40F2272179
:10359000112001F0FDFC9D21122001F0F9FC4FF4F7
:1035A000C851132001F0F4FC2521292001F0F0FC82
:1035B0000D212B2001F0ECFC0721302001F0E8FC6C
:1035C00040F20331312001F0E3FC0321322001F00D
:1035D000DFFC40F20621352001F0DAFC082136201C
:1035E00001F0D6FC40F20641372001F0D1FC4FF447
:1035F000417100E058E0382001F0CAFC0721392071
:1036000001F0C6FC40F202613C2001F0C1FC08213F
:103610003D2001F0BDFC0021502001F0B9FCEF215C
:10362000512001F0B5FC0021522001F0B1FC40F224
:103630003F11532001F0ACFC4FF42741602001F012
:10364000A7FC0121612001F0A3FC00216A2001F008
:103650009FFC0021802001F09BFC0021812001F0D3
:1036600097FC0021822001F093FC0021832001F0CF
:103670008FFC0021842001F08BFC0021852001F0CB
:1036800087FC1021902001F083FC4FF4C061922050
:1036900001F07EFC40F23311072001F079FC222179
:1036A000002001F075FC1FE78F48808849F228311F
:1036B00088427DD141F28F01EC2001F069FC41F29A
:1036C0003421EF2001F064FC4FF48071012001F0FF
:1036D0005FFC4FF4E061022001F05AFC41F230013E
:1036E000032001F055FC0021042001F051FC40F2C0
:1036F0000221082001F04CFC0021092001F048FCC7
:1037000000210A2001F044FC01210C2001F040FCC2
:1037100000210D2001F03CFC00210F2001F038FCBD
:103720000021102001F034FC0721112001F030FCB1
:103730000021122001F02CFC0021132001F028FCB4
:103740000121072001F024FC322001F017FF41F293
:103750009041102001F01CFC40F22721112001F0C3
:1037600017FC322001F00AFF8A21122001F010FC20
:10377000322001F003FF4FF4D051132001F008FC78
:103780000621292001F004FC0D212B2001F000FC72
:10379000322001F0F3FE0021202001F0F9FB00218E
:1037A000212001F0F5FB322001F0E8FE002100E0CD
:1037B00075E0302001F0ECFB40F20461312001F0B3
:1037C000E7FB40F20531322001F0E2FB0021352019
:1037D00001F0DEFB40F60941362001F0D9FB4FF441
:1037E0000171372001F0D4FB40F20131382001F0A3
:1037F000CFFB40F20771392001F0CAFB00213C20C9
:1038000001F0C6FB40F60A213D2001F0C1FB322049
:1038100001F0B4FE0021502001F0BAFBEF2151204D
:1038200001F0B6FB0021522001F0B2FB40F23F1143
:10383000532001F0ADFB4FF42741602001F0A8FBBD
:103840000121612001F0A4FB00216A2001F0A0FB0E
:103850000021802001F09CFB0021812001F098FBD9
:103860000021822001F094FB0021832001F090FBD5
:103870000021842001F08CFB0021852001F088FBD1
:103880001021902001F084FB4FF4C061922001F0E0
:103890007FFB40F23311072001F07AFB24E6124847
:1038A000808849F2203188427ED10021084601F00B
:1038B0006FFB4FF48071012001F06AFB4FF4E0616F
:1038C000022001F065FB41F23001032001F060FBB2
:1038D0000021042001F05CFB40F20221082001F0ED
:1038E00057FB0021092001E01802002001F050FBE5
:1038F00000210A2001F04CFB01210C2001F048FBC3
:1039000000210D2001F044FB00210F2001F040FBBD
:10391000322001F033FE40F20111072001F038FBA4
:10392000322001F02BFE4FF48651102001F030FBC5
:103930000721112001F02CFB4FF48871122001F0B7
:1039400027FB4FF43061132001F022FB00212920D6
:1039500001F01EFB44F210012B2001F019FB0021A5
:10396000502001F015FBEF21512001F011FB002147
:10397000522001F00DFB40F23F11532001F008FBF3
:103980004FF41C51602001F003FB0121612001F084
:10399000FFFA00216A2001F0FBFA0021802001F0EB
:1039A000F7FA0021812000E030E001F0F1FA002177
:1039B000822001F0EDFA0021832001F0E9FA0021D4
:1039C000842001F0E5FA0021852001F0E1FA1021C0
:1039D000902001F0DDFA0021922001F0D9FA0121B6
:1039E000932001F0D5FA4FF48871952001F0D0FAB8
:1039F0000021972001F0CCFA0021982001F0C8FAAC
:103A000040F27311072001F0C3FA6DE5FE4880888B
:103A100049F2313188427DD141F21401E72001F0B1
:103A2000B7FA4FF48071012001F0B2FA4FF400713F
:103A3000022001F0ADFA41F23801032001F0A8FAAA
:103A400040F20221082001F0A3FA0021092001F030
:103A50009FFA00210A2001F09BFA00210C2001F0BE
:103A600097FA00210D2001F093FA00210F2001F0B8
:103A70008FFA0021102001F08BFA0721112001F0AC
:103A800087FA0021122001F083FA0021132001F0AF
:103A90007FFAC82001F072FD41F29061102001F020
:103AA00077FA40F22721112001F072FA322001F05A
:103AB00065FD0C21122001F06BFA322001F05EFD51
:103AC0004FF40061132001F063FA1121292001F065
:103AD0005FFA0B212B2001F05BFA322001F04EFD42
:103AE0000021202001F054FA40F23F11212001F082
:103AF0004FFA0021302001F04BFA4FF4837131204E
:103B000001F046FA0021322001F042FA4FF401712F
:103B1000352000E064E001F03BFA41F20A61362012
:103B200001F036FA40F20771372001F031FA4FF414
:103B30008371382001F02CFA40F20771392001F02E
:103B400027FA40F202413C2001F022FA40F60F41F0
:103B50003D2001F01DFA0021502001F019FAEF215B
:103B6000512001F015FA0021522001F011FA40F223
:103B70003F11532001F00CFA4FF41C51602001F06A
:103B800007FA0121612001F003FA00216A2001F007
:103B9000FFF90021802001F0FBF90021812001F0D4
:103BA000F7F90021822001F0F3F90021832001F0D0
:103BB000EFF90021842001F0EBF90021852001F0CC
:103BC000E7F91021902001F0E3F94FF4C061922051
:103BD00001F0DEF940F23311072001F0D9F983E456
:103BE0008948808845F2084188427DD14FF4807130
:103BF000012001F0CDF94FF4E061022001F0C8F995
:103C000041F23001032001F0C3F90021042001F04A
:103C1000BFF940F20721082001F0BAF9002109207C
:103C200001F0B6F900210A2001F0B2F900210C20C0
:103C300001F0AEF900210D2001F0AAF900210F20BA
:103C400001F0A6F9142001F099FC41F2B0611020B6
:103C500001F09EF90121112001F09AF901211720AC
:103C600001F096F94FF49C71122001F091F94FF494
:103C70000061132001F08CF90921292001F088F955
:103C800009212A2001F084F90021A42001F080F903
:103C90000021502001F07CF9EF21512001F078F94A
:103CA0000021522001F074F940F23F11532001F03D
:103CB0006FF94FF41C51602001F06AF90121612075
:103CC00001F066F900216A2001F062F900218020EC
:103CD00001F05EF90021812001F05AF900218220D3
:103CE00001F056F9002100E024E0832001F050F9B2
:103CF0000021842001F04CF90021852001F048F9D1
:103D00001321902001F044F90021922001F040F9A4
:103D10000321932001F03CF94FF48871952001F0C4
:103D200037F940F27311072001F032F9322001F027
:103D300025FCB8E43448808841F2055188427DD1A1
:103D40000021072001F024F9322001F017FC4FF484
:103D50008E71122001F01CF90121A42001F018F944
:103D60000F21082001F014F908210A2001F010F9B0
:103D700008210D2001F00CF940F20771302001F00C
:103D800007F90721312001F003F940F203613220E5
:103D900001F0FEF84FF4E061332001F0F9F840F251
:103DA0000221342001F0F4F80221352001F0F0F86E
:103DB00041F60F71362001F0EBF840F20771372021
:103DC00001F0E6F80021382001F0E2F80021392066
:103DD00001F0DEF840F207713A2001F0D9F8002135
:103DE0003B2001F0D5F807213C2001F0D1F800215B
:103DF0003D2001F0CDF8322001F0C0FB0121072069
:103E000001F0C6F8012101E018020020172001F09E
:103E1000BFF8322001F0B2FB4FF4BD51102001F089
:103E2000B7F840F21721112001F0B2F84FF48F716A
:103E3000122001F0ADF84FF4706100E098E013201B
:103E400001F0A6F800212A2001F0A2F80A21292079
:103E500001F09EF84FF49F71122001F099F80021B3
:103E6000502001F095F8EF21512001F091F8002148
:103E7000522001F08DF840F23F11532001F088F8F4
:103E80004FF41C51602001F083F80121612001F002
:103E90007FF800216A2001F07BF80021802001F0EA
:103EA00077F80021812001F073F80021822001F0D1
:103EB0006FF80021832001F06BF80021842001F0CD
:103EC00067F80021852001F063F81321902001F0AC
:103ED0005FF84FF44071922001F05AF805219320C9
:103EE00001F056F80021952001F052F800219720AA
:103EF00001F04EF80021982001F04AF84FF480714B
:103F0000012001F045F84FF4E061022001F040F893
:103F100041F23801032001F03BF80021042001F0B8
:103F200037F800210C2001F033F800210F2001F0B8
:103F30002FF80021202001F02BF80021212001F092
:103F400027F82121072001F023F8142001F016FBA7
:103F50006121072001F01CF8142001F00FFB40F252
:103F60007311072001F014F8142001F007FB95E409
:103F7000FE4880884BF2055188427CD100210846DA
:103F800001F006F80021084601F002F80021084679
:103F900000F0FEFF0021084600F0FAFF0121A420F6
:103FA00000F0F6FF142001F0E9FA4FF41C516020F4
:103FB00000F0EEFF40F20221082000F0E9FF4FF48C
:103FC0000571302000F0E4FF43F21571312000F05C
:103FD000DFFF40F20461322000F0DAFF40F61661A4
:103FE000332000F0D5FF42F21121342000F0D0FF41
:103FF0004FF4A851352000F0CBFF48F2075136208E
:1040000000F0C6FF41F20741372000F0C1FF41F246
:104010000341382000F0BCFF2021392000F0B8FF18
:104020001A21902000F0B4FF0021102000F0B0FF12
:104030000721112000F0ACFF0021122000F0A8FFA2
:104040000021132000F0A4FF142001F097FA4FF490
:10405000E661102000F09CFF40F23711112000F0C3
:1040600097FF142001F08AFA4FF4DC71122000F05F
:104070008FFF142000E085E001F080FA4FF47061BA
:10408000132000F085FF80212A2000F081FF4821C5
:10409000292000F07DFF142001F070FA4FF48071A8
:1040A000012000F075FF4FF4E061022000F070FF86
:1040B00041F23801032000F06BFF40F2022108209A
:1040C00000F066FF00210A2000F062FF00210C20B2
:1040D00000F05EFF00210D2000F05AFF30210E207D
:1040E00000F056FF0021502000F052FFEF21512038
:1040F00000F04EFF0021522000F04AFF40F23F1135
:10410000532000F045FF4FF41C51602000F040FFA9
:104110000121612000F03CFF00216A2000F038FFFF
:104120001121902000F034FF4FF4C061922000F084
:104130002FFF40F20241932000F02AFF0221942039
:1041400000F026FF142001F019FA0121072000F0E9
:104150001FFF142001F012FA6121072000F018FF60
:1041600040F27311072000F013FF0021202000F01F
:104170000FFF0021212000F00BFF2221002000F082
:1041800007FF11E3794880884CF2055188427CD1C1
:104190000021084600F0FCFE0021084600F0F8FE71
:1041A000142001F0EBF90021084600F0F1FE002197
:1041B000084600F0EDFE0021084600F0E9FE00216F
:1041C000084600F0E5FE0121A42000F0E1FE1420E5
:1041D00001F0D4F94FF41C51602000F0D9FE40F6F4
:1041E0000601082000F0D4FE40F20371302000F0F8
:1041F000CFFE0121312000F0CBFE0421322000F05F
:10420000C7FE4FF48171332000F0C2FE4FF44071BD
:10421000342000F0BDFE40F20311352000F0B8FE5E
:104220001F21362000F0B4FE40F20371372000F069
:10423000AFFE0121382000F0ABFE0421392000F050
:10424000A7FE1521902000F0A3FE4FF482611020FC
:1042500000F09EFE40F24721112000F099FE4FF43D
:10426000DE71122000F094FE4FF46061132000F024
:104270008FFE782001F082F94FF48071012000F068
:1042800087FE4FF40071022000E052E000F080FE53
:1042900041F23001032000F07BFE08210A2000F0EB
:1042A00077FE00210C2000F073FE20210E2000F08C
:1042B0006FFE00210F2000F06BFE0021202000F097
:1042C00067FE0021212000F063FE3D212A2000F03E
:1042D0005FFE142001F052F92D21292000F058FE34
:1042E0000021502000F054FE4DF2EF01512000F06B
:1042F0004FFE0021522000F04BFE40F23F115320B0
:1043000000F046FE0021612000F042FE00216A20FC
:1043100000F03EFE4FF44071922000F039FE05217E
:10432000932000F035FE4FF48071072000F030FE3E
:104330003AE20E48808844F2315188427ED1012110
:10434000002000F025FE0A2001F018F941F2286152
:10435000102000F01DFE0E21122000F019FE40F684
:104360003921132000F014FE0A2001E01802002079
:1043700001F004F94021112000F00AFE502115201F
:1043800000F006FE0A2001F0F9F81E21122000F0CC
:10439000FFFD0A2001F0F2F84FF4B151102000F0B7
:1043A000F7FD42F63921132000F0F2FD0A2001F05A
:1043B000E5F84FF48071012000F0EAFD4FF4407100
:1043C000022000F0E5FD41F23801032000F0E0FD9D
:1043D00040F20221082000F0DBFD08210A2000F055
:1043E000D7FD0021302000F0D3FD40F20241312002
:1043F00000F0CEFD4FF48371322000F0C9FD40F291
:104400000351332000F0C4FD4FF48271342000F0DA
:10441000BFFD40F20131352000F0BAFD40F20771D6
:10442000362000F0B5FD40F20531372000F0B0FD38
:104430004FF40271382000F0ABFD00E03EE040F6A2
:104440000B71392000F0A4FD0221412000F0A0FDF5
:104450004FF41C51602000F09BFD0121612000F011
:1044600097FD4FF40471902000F092FD4FF4857198
:10447000922000F08DFD0421932000F089FD4FF47F
:104480008071A02000F084FD0121072000F080FD54
:104490002121072000F07CFD2321072000F078FD7A
:1044A0003321072000F074FD40F23311072000F0A3
:1044B0006FFD0021A02000F06BFD75E1C0488088F1
:1044C00044F2355188427CD13021152000F060FD46
:1044D00010219A2000F05CFD2021112000F058FDF1
:1044E00043F22841102000F053FD0221122000F079
:1044F0004FFD41F23801132000F04AFD282001F061
:104500003DF81221084600F043FD282001F036F85E
:1045100043F22041102000F03BFD43F2380113200C
:1045200000F036FD462001F029F80021302000F08F
:104530002FFD40F20241312000F02AFD40F2073108
:10454000322000F025FD4FF44171332000F020FDB2
:104550000421342000F01CFD40F20141352000F020
:1045600017FD40F20771362000F012FD40F20531D0
:10457000372000F00DFD4FF4C261382000F008FD37
:104580004FF4C261392000F003FD4FF48071012027
:1045900000F0FEFC4FF44071022000F0F9FC41F203
:1045A0003001032000F0F4FC40F60801082000F080
:1045B000EFFC08210A2000F0EBFC4FF41C516020B6
:1045C00000E033E000F0E4FC0121612000F0E0FCB9
:1045D0004FF49F71902000F0DBFC4FF4807192202B
:1045E00000F0D6FC4FF48071932000F0D1FC4FF422
:1045F0004051A02000F0CCFC1021A32000F0C8FC0A
:104600000121072000F0C4FC2121072000F0C0FC9C
:104610002321072000F0BCFC3321072000F0B8FC68
:1046200040F23311072000F0B3FCBDE064488088FD
:1046300041F663118842F8D1E22000F093FC1D207E
:1046400000F084FC022000F081FC042000F07EFCDD
:10465000642000F0AFFFE02000F084FC012000F0B7
:1046600075FC0A2000F08AFFE02000F07BFC0320AC
:1046700000F06CFC0C2000F081FF012000F072FCC7
:104680000A2000F07BFFE62000F06CFC2F2000F0F9
:104690005DFCFF2000F05AFCFF2000F057FCB0202A
:1046A00000F060FC202000F051FC002000F04EFCE7
:1046B000032000F04BFC40F21F3000F047FC0120CB
:1046C00000F044FC40F2DF1000F040FC002000F05D
:1046D0003DFCB42000F046FC042000F037FC40F222
:1046E0001F4000F033FC002000F030FC2E2000F0D2
:1046F0002DFC002000F02AFC002000F027FC002008
:1047000000F024FC002000F021FCB62000F02AFC80
:10471000022000F01BFC4FF4037000F017FC002097
:1047200000F014FC172000F011FC152000F00EFC26
:10473000002000F00BFC002000F008FCF02000F04E
:1047400011FC032000F002FC292000F00BFCD0201B
:1047500000F008FC002000F0F9FBBE2000F002FC95
:10476000052000F0F3FBFE2000F0F0FB012000F03C
:10477000EDFB002000F0EAFB002000F0E7FB00204A
:1047800000F0E4FBB82000F0EDFB032000F0DEFBBE
:10479000012000F0DBFBBA2000F0E4FB012000F078
:1047A000D5FB642000F032F80020FCF7D3F901209B
:1047B000044908604FF6FF70FCF796F91CBD000035
:1047C00018020020BC82404210B50246012000E0E1
:1047D00050430B00A1F10104E1B2F9D110BD00007A
:1047E00008B5034800880090BDF8000008BD00002F
:1047F0008000006C10B50446204600F0B3FB052095
:1048000000F0D8FEFFF7ECFF10BD000070B52DEDF5
:10481000048B0446BE2000F0A5FB052000F096FBAB
:10482000204602F088FB41EC190B9FED0E0B53EC78
:10483000102B02F093FB41EC180B02F04FFB85B2FA
:10484000284600F083FB012000F080FBFF2000F0F1
:104850007DFB002000F07AFB002000F077FBBDEC30
:10486000048B70BD6666666666660440F0B50546F4
:1048700000240027B748807901280BD1B5488088EB
:1048800046F60401884205D0B248808841F663119B
:10489000884208D1AF488079F0B9AE48808841F6A7
:1048A0006311884218D1082D15D2DFE805F00406FF
:1048B000080A0C0E101206250DE007250BE0042552
:1048C00009E0052507E0012505E0002503E00325B3
:1048D00001E0022500BF00BF9E48808849F24131B7
:1048E000884217D09B48808846F60401884211D040
:1048F0009848808845F2103188420BD095488088CE
:1049000045F21051884205D09248808841F66311E3
:1049100088427DD1082D1CD2DFE805F00406090C81
:104920000F12151800BF14E044F0800411E044F0A9
:1049300040040EE044F0C0040BE044F0200408E022
:1049400044F0600405E044F0A00402E044F0E00418
:1049500000BF00BF7F48808845F21051884202D1D5
:104960004FF4585700E036277A48808845F21031D6
:1049700088420DD07748808845F21051884207D090
:104980007448808841F66311884201D044F00804DD
:104990007048808846F60401884201D144F0020440
:1049A0002146384600F0F4FA6A48808841F66311DF
:1049B00088421DD004F0200068B16648008865492F
:1049C0004988884214DA634806884088614908802B
:1049D000084646800CE05F4800885E494988884266
:1049E00006DD5C48068840885A49088008464680AB
:1049F0005848808845F21051884254D15549488919
:104A000000F0B0FA002000F0A1FA5249498900E014
:104A100078E0491C88B200F0A5FA002000F096FA70
:104A20004C494989891C88B200F09CFA4949098897
:104A3000491EC1F30F2000F089FA46494989C91C73
:104A400088B200F08FFA43490978491EC8B200F0D5
:104A50007DFA4049888900F085FA002000F076FA56
:104A60003C498989491C88B200F07CFA002000F09A
:104A70006DFA38498989891C88B200F073FA354982
:104A80004988491EC1F30F2000F060FA3149898935
:104A9000C91C88B200F066FA2E498978491EC8B24E
:104AA00000F054FA55E02B49488900F05BFA0020E9
:104AB00000F04CFA002000F049FA26490988491E06
:104AC000C1F30F2000F042FA22490978491EC8B20A
:104AD00000F03CFA1F49888900F044FA002000F0F9
:104AE00035FA002000F032FA1A494988491EC1F30C
:104AF0000F2000F02BFA17498978491EC8B200F040
:104B000025FA26E0082D1CD2DFE805F004070A0D7F
:104B10000F12151844F0300413E044F0100410E0B4
:104B200044F020040DE000BF0BE044F0380408E03E
:104B300044F0280405E044F0180402E044F00804BE
:104B400000BF00BF032744F480542146384600F0DC
:104B50001FFAF0BD1802002030B504460D46674824
:104B6000808849F24131884205D06448808845F206
:104B70001031884214D16149488900F0F3F92012BC
:104B800000F0E4F9E0B200F0E1F95C49888900F056
:104B9000E9F9281200F0DAF9E8B200F0D7F9ABE051
:104BA0005648808846F6040188421DD153488079D2
:104BB000012804D151480088401E001B84B24F498F
:104BC000488900F0CFF9201200F0C0F9E0B200F0FF
:104BD000BDF94A49888900F0C5F9281200F0B6F9F4
:104BE000E8B200F0B3F987E04448808841F66311E9
:104BF000884247D141488079A8B940480088401E82
:104C0000001B84B23D49488900F0ACF9002000F057
:104C10009DF9002000F09AF9201200F097F9E0B217
:104C200000F094F916E03549488900F09BF920120C
:104C300000F08CF9E0B200F089F930490988491E8A
:104C4000C1F30F2000F082F92C490978491EC8B23F
:104C500000F07CF92949888900F084F9281200F0D5
:104C600075F9E8B200F072F924494988491EC1F388
:104C70000F2000F06BF921498978491EC8B200F075
:104C800065F939E01D48808845F21051884220D1ED
:104C90001A49488900F066F9201200F057F91749BF
:104CA0004989491C88B200F05DF9E0B200F04EF984
:104CB0001249888900F056F9281200F047F90F4987
:104CC0008989491C88B200F04DF9E8B200F03EF93C
:104CD00012E00A488079012804D108480088401E63
:104CE000001B84B205494889214600F051F9034967
:104CF0008889294600F04CF930BD000018020020D8
:104D00002DE9F84F80460E4617461C46B34620460E
:104D1000E31704EB5373DB1021464FEAE47C04EB0A
:104D20005C7C4FEAEC0CA4EBCC0CBCF1000F02D085
:104D30004FF0010C01E04FF0000C6344224604EBFD
:104D4000D27C4FEA6C0C03FB0CF3DBB20093A7F1AF
:104D50002000C7B2002556E00C2C07D107EB470016
:104D60002B4901EB800010F8059013E0102C05D1C1
:104D7000284800EB071010F805900BE0182C07D11D
:104D800007EBC700244901EB800010F8059001E013
:104D9000BDE8F88F4FF0000A2FE009F0800030B135
:104DA0001E48028831464046FBF7B4FF07E00A98E8
:104DB00028B91B48028831464046FBF7ABFF4FEA53
:104DC00049604FEA1069701C86B216484088B042AC
:104DD00000DCDDE7A6EB0B00A0420AD15E4608F13D
:104DE00001001FFA80F80F480088404500DCCFE73B
:104DF00006E00AF1010000F0FF0ABAF1080FCCDB6F
:104E000000BF681CC5B200988542A5DB00BFBFE7A4
:104E10004E720008C2760008B27C00080A0000202A
:104E20000C000020180200202DE9F84704460D462A
:104E300090469946DDE9096704F0FF0A08EB040093
:104E40001FFA80F809EB05001FFA80F916E04445C7
:104E500002DB5446A81985B24D4500DB14E0002062
:104E600000903A78334629462046FFF749FF3046FE
:104E700006EBD07104EB61018CB27F1C38787E2880
:104E800002DC38782028E2DA00BFBDE8F8872DE997
:104E9000FF4F82B0064692461F46DDE90F480020CC
:104EA000019000254DE0781B401EC1B20A20FFF79B
:104EB0008BFCBAFBF0F00A21B0FBF1F201FB120906
:104EC000019850BB781EA84227DDB9F1000F22D10E
:104ED00008F0800078B108F00100A34604EBDB7114
:104EE000491001FB0561009088B2234630220399E6
:104EF000FFF706FF0EE008F00100A34604EBDB71AC
:104F0000491001FB0561009088B2234620220399D5
:104F1000FFF7F6FE13E00120019008F00100A34620
:104F200004EBDB71491001FB0561009088B209F1C7
:104F30003001CAB223460399FFF7E2FE00BF681CA6
:104F4000C5B2BD42AFDB06B0BDE8F08F01B5BDF81C
:104F500000000090BDF800000149088008BD000075
:104F60008000006C01B5BDF800000090BDF80000A5
:104F70000149088008BD00007E00006C02480089DD
:104F80000249088070470000180200207E00006C73
:104F9000034A10804FF0D842A2F8801070470000FA
:104FA0007E00006C1CB50B48006840F020000949E9
:104FB00008600120032100230246CDE900104902C8
:104FC0000548FBF771FC0120044908600449C1F859
:104FD000A8021CBD3038024000140240A4824242A4
:104FE000008042422DE9F0410746884614461D469E
:104FF000284600F033F8C5F1040007FA00F60F2048
:10500000284100EA0800064306F00F06E21704EB09
:10501000D2625211920002F1E022D2F80021214620
:10502000E31704EBD3635B11A4EB431C012303FAE6
:105030000CF31A432046E31704EBD3635B119B0088
:1050400003F1E023C3F800210348005D40EA0610A5
:1050500001490855BDE8F08100E400E0014607235E
:1050600023EA01021202054B18684FF6FF031840AD
:10507000034B18431043014B186070470CED00E0E0
:105080000000FA054A0A52020243014B1A607047B7
:1050900008ED00E010B52DED048B0446204601F02C
:1050A0004AFF41EC180B9FED120B53EC102B51EC07
:1050B000180B01F0BBFD41EC180B9FED0F0B53ECEF
:1050C000102B51EC180B01F049FF41EC190B9FED2F
:1050D0000C0B53EC102B01F0A9FD41EC180B51EC1B
:1050E000180B01F0FBFE08498863BDEC048B10BD72
:1050F0000000000000005940000000000000704067
:105100006666666666660A4000400140F0B5044681
:105110000D4616461F461448006840F0010012492B
:10512000086000201049083108600F4800680F49E6
:1051300008400D4908600E48091D0860081F0068F6
:1051400020F48020091F0860002007490C31086006
:105150003B4632462946204600F00CF8002108461E
:10516000FFF790FFF0BD000000380240FFFFF6FEA1
:1051700010300024F0B504460D46002100203D4EBD
:10518000366846F480363B4F3E6001E04E1CB1B2BB
:10519000384E366806F400361EB941F6FF76B14245
:1051A000F4DB41F6FF76B14201D1012060E0314EDF
:1051B0004036366846F080562E4F40373E602E4EC1
:1051C000366846F440462C4F3E602A4E0836366814
:1051D00046F41446274F08373E60264E366826F0C0
:1051E0008076244F3E6045EA84160127C7EB5207BC
:1051F00046EA074646EA036646F480061D4F3F1D11
:105200003E603E1F366846F080763F1F3E6000BF1E
:10521000184E366806F00076002EF9D0174E366824
:1052200046F48076154F3E603E46366846F400767A
:105230003E603E46366846F480663E603E463668CE
:1052400046F005063E600B4E0836366826F003062B
:10525000084F08373E603E46366846F002063E601C
:1052600000BF044E0836366806F00C06082EF8D14A
:10527000F0BD00000038024000700040003C0240D9
:105280000948008800F0010038B10848006808B9F2
:10529000012000E00020054908600348008820F054
:1052A000010001490880704710040040A882424272
:1052B00010B50C48008800F0010058B10A4908698F
:1052C000804700200749143108604FF47A7005497F
:1052D0001C3108600348008820F001000149088063
:1052E00010BD0000100800405C000020354908880F
:1052F0003549097801F0800100295ED100F00101F3
:10530000D1B13149097801F04001A9B12E4909789C
:1053100001F03F013F290AD12B49097841F0800172
:10532000294A11704FF0FF31284A116004E02649E4
:105330000978491C244A117000F00201E9B322499E
:10534000097801F0400199B11F49097841F08001C5
:105350001D4A11701B49243109681C4A1160194902
:105360001031098821F00201164A1032118024E020
:105370000021154A1170154A11601349097841F04E
:105380004001114A11700F491039098821F00101BB
:105390000C4A103A118000210A4A14321160111F80
:1053A000098841F00201121F11800649103909884D
:1053B00041F00101034A103A11800021014A118095
:1053C00070470000100C0040100000201400002066
:1053D0007CB505460C461D48006840F480301B49EA
:1053E00008601A481438006840F001001749143961
:1053F00008600120032100230222CDE900100821CA
:105400001348FBF751FA032211461148FBF72CFA17
:105410001048C5620485008B40F4C0400D490883E4
:105420000846008B40F4006008830846008C40F07A
:10543000100008840846008840F080000880084674
:10544000008840F0010008807CBD00004438024024
:10545000000002400040014070B505460C4610486F
:10546000006840F004000E4908600E480560001F07
:1054700004800C482038008840F001000949203998
:10548000088008482C38008840F0010005492C3974
:10549000088002231E2203210846FFF7A3FD70BDEA
:1054A000403802402C0800401C49098801F02001C6
:1054B00009B31A498988C8B21949098801F4004119
:1054C000C9B91749098801F4804161B10A2803D09C
:1054D0000021134A118020E01149098841F400415C
:1054E0000F4A118019E00D2806D10D49098841F4B1
:1054F00080410B4A118010E009490988C1F30D0170
:10550000084A505406490988491C054A1180114629
:105510000988C72901DD0021118070470010014072
:10552000080000205001002030380A2801D2012054
:10553000704700207047014600BF70474FF0E021E0
:10554000096921F004014FF0E0221161C21700EB5C
:105550005272C2F3C702074B1A701946097801EB61
:105560004102C2EBC1114FF6FF7202EAC101024AC9
:1055700011807047000000200200002070B5044632
:105580004FF4077094FBF0F0C6B24FF4077094FB31
:10559000F0F100FB114085B205E04FF4077000F018
:1055A00027F8701EC6B2002EF7D115B1284600F0BC
:1055B0001FF870BD01460D4A12784A434FF0E023B0
:1055C0005A6100229A6101221A6100BF4FF0E02265
:1055D000106900F001021AB100F48032002AF5D0FF
:1055E00000224FF0E0231A619A617047000000200A
:1055F00001460D4A12884A434FF0E0235A610022C7
:105600009A6101221A6100BF4FF0E022106900F098
:1056100001021AB100F48032002AF5D000224FF0C6
:10562000E0231A619A6170470200002000BF054A1A
:10563000128802F04002002AF9D0C2B2014B9A80CF
:1056400070470000001001402DED068B82B000274E
:1056500000250723022208214FF4A870FFF756FD0A
:10566000A820FFF76BFF4FF4E131542000F086F9DA
:105670009848416854208847FFF794FCFBF70AFCE0
:10568000FBF780F8FBF7B6F90121FF20FFF7A0FE3A
:105690004FF478409049088090A010210B46C82212
:1056A000CDE9001032211E20FFF7BEFB90A0102193
:1056B0000B46C822CDE9001046211E20FFF7B4FB9F
:1056C0008FA010210B46C822CDE900105A211E20C0
:1056D000FFF7AAFB8EA010210B46C822CDE90010CF
:1056E0006E211E20FFF7A0FB8CA010210B46C822C4
:1056F000CDE9001082211E20FFF796FB1F2076497E
:1057000008808AA010210B46C822CDE900109621FE
:105710001E20FFF789FB88A010210B46C822CDE987
:105720000010AA211E20FFF77FFB87A010210B4647
:10573000C822CDE90010BE211E20FFF775FB864868
:105740008563C6E0781CC7B20020FBF77BF90646EC
:10575000042E07D1FA2D02DA05F10A0085B27E483F
:1057600085630AE0022E08D10A2D03DDA5F10A00A7
:1057700085B200E00025784885630A2F03D0022E09
:1057800001D0042E7DD17448806B84B2002010219A
:1057900003232246CDE9001096215E20FFF777FB18
:1057A00000EE104AB8EE400A10EE100A01F0D4FCE8
:1057B00041EC1A0B9FED690B53EC102B01F0CEFB63
:1057C00041EC190B01F000FA08EE100ABCEEC80A11
:1057D00010EE100A84B2002010210123BCEEC80A8A
:1057E00010EE102ACDE90010AA215E20FFF74FFB32
:1057F00000EE104AB8EE400A38EE400AB0EE408A99
:105800009FED580A28EE000AB0EE408A8020102151
:105810000323BCEEC80A10EE102ACDE90010AA211D
:105820006E20FFF734FB14210520FBF7CBF804466C
:1058300000EE104AB8EE400A10EE100A01F08CFC9F
:1058400041EC1A0B9FED480B53EC102B01F086FB3B
:1058500041EC190B01F0B8F908EE100ABCEEC80AC9
:1058600010EE100A84B2002010210123BCEEC80AF9
:1058700010EE102ACDE90010BE215E20FFF707FBD5
:1058800000E023E000EE104AB8EE400A38EE400A8D
:10589000B0EE408A9FED330A28EE000AB0EE408A4F
:1058A000802010210323BCEEC80A10EE102ACDE997
:1058B0000010BE216E20FFF7EAFA00272C4800688E
:1058C00008B9012000E00020294908600A20FFF7FC
:1058D00055FE37E75C0000200A0000204578706C18
:1058E0006F7265722053544D33324634000000000D
:1058F00050574D204441432054455354000000006C
:1059000041544F4D40414C49454E54454B000000D9
:10591000323031342F352F3700000000574B5F55A0
:10592000503A2B20204B4559313A2D004441432019
:1059300056414C3A0000000044414320564F4C3A37
:10594000302E30303056000041444320564F4C3A00
:10595000302E3030305600000040014066666666EA
:1059600066668A3F00007A446666666666664A3FF7
:10597000A48242420146086870470000F0B52DED50
:10598000028B83B005460E46384905FB01F000EE58
:10599000100AF8EE400A300100EE100AB8EE400A94
:1059A00080EE801AB0EE418ABCEEC80A10EE100AF2
:1059B00084B200EE104AB8EE400A38EE400AF3EE28
:1059C000000A20EE200ABCEEC00A10EE107A4FF654
:1059D000FF7000EA0414E01984B22548006840F022
:1059E00001002349086022481430006840F010008C
:1059F0001F49143108600120022100230A46CDE925
:105A000000104FF4C0611B48FAF74EFF072209212E
:105A10001848FAF729FF07220A211648FAF724FF47
:105A200015480481808920F4004013498881084684
:105A3000808940F0080088810846808940F0040091
:105A400088810846808940F0200088810223252231
:105A500003210846FFF7C6FA0748808940F4005042
:105A60000549888103B0BDEC028BF0BD40420F00B8
:105A700030380240000002400010014030B595B0BF
:105A8000054613AB12AA09A9284600F03FFA0446BE
:105A900014B1204615B030BD0020149026E02249F4
:105AA00009689DF8502001EBC20113AB11AA4868A8
:105AB00001A900F02BFA04460CB12046EAE709A937
:105AC00001A800F0DDFC60B99DF844009DF8481085
:105AD000884201DD0220DDE79DF8500012498875FB
